{
  "address": "0xd993bCcd68785ae7a03db04E8c1344511d14695d",
  "abi": [
    {
      "anonymous": false,
      "inputs": [
        {
          "indexed": true,
          "internalType": "address",
          "name": "_snapAddress",
          "type": "address"
        },
        {
          "indexed": false,
          "internalType": "address",
          "name": "_creator",
          "type": "address"
        },
        {
          "indexed": false,
          "internalType": "uint256",
          "name": "_mintEndsTimestamp",
          "type": "uint256"
        },
        {
          "indexed": false,
          "internalType": "uint256",
          "name": "_visibleEndsTimestamp",
          "type": "uint256"
        }
      ],
      "name": "SnapMade",
      "type": "event"
    },
    {
      "inputs": [
        {
          "internalType": "string",
          "name": "_name",
          "type": "string"
        },
        {
          "internalType": "string",
          "name": "_symbol",
          "type": "string"
        },
        {
          "components": [
            {
              "internalType": "string",
              "name": "name",
              "type": "string"
            },
            {
              "internalType": "string",
              "name": "description",
              "type": "string"
            },
            {
              "internalType": "string",
              "name": "image",
              "type": "string"
            },
            {
              "internalType": "string",
              "name": "externalLink",
              "type": "string"
            },
            {
              "internalType": "string",
              "name": "sellerFeeBasisPoints",
              "type": "string"
            },
            {
              "internalType": "string",
              "name": "feeRecipient",
              "type": "string"
            }
          ],
          "internalType": "struct ISnapCore.ContractURI",
          "name": "_contractURI",
          "type": "tuple"
        },
        {
          "internalType": "string",
          "name": "_tokenImageURL",
          "type": "string"
        },
        {
          "internalType": "string",
          "name": "_snapImageURL",
          "type": "string"
        },
        {
          "internalType": "uint256",
          "name": "_mintFee",
          "type": "uint256"
        },
        {
          "internalType": "address payable",
          "name": "_mintFeeRecipient",
          "type": "address"
        },
        {
          "internalType": "address payable",
          "name": "_creator",
          "type": "address"
        },
        {
          "internalType": "uint256",
          "name": "_salePrice",
          "type": "uint256"
        }
      ],
      "name": "createSnap",
      "outputs": [
        {
          "internalType": "address",
          "name": "snapAddress",
          "type": "address"
        }
      ],
      "stateMutability": "nonpayable",
      "type": "function"
    },
    {
      "inputs": [
        {
          "internalType": "address",
          "name": "_creator",
          "type": "address"
        }
      ],
      "name": "getActiveByCreator",
      "outputs": [
        {
          "internalType": "address[]",
          "name": "snaps",
          "type": "address[]"
        }
      ],
      "stateMutability": "view",
      "type": "function"
    },
    {
      "inputs": [],
      "name": "getActiveSnaps",
      "outputs": [
        {
          "internalType": "address[]",
          "name": "snaps",
          "type": "address[]"
        }
      ],
      "stateMutability": "view",
      "type": "function"
    },
    {
      "inputs": [
        {
          "internalType": "address",
          "name": "_creator",
          "type": "address"
        }
      ],
      "name": "getVisibleByCreator",
      "outputs": [
        {
          "internalType": "address[]",
          "name": "snaps",
          "type": "address[]"
        }
      ],
      "stateMutability": "view",
      "type": "function"
    },
    {
      "inputs": [],
      "name": "getVisibleSnaps",
      "outputs": [
        {
          "internalType": "address[]",
          "name": "snaps",
          "type": "address[]"
        }
      ],
      "stateMutability": "view",
      "type": "function"
    },
    {
      "inputs": [
        {
          "internalType": "address",
          "name": "_snap",
          "type": "address"
        }
      ],
      "name": "isActive",
      "outputs": [
        {
          "internalType": "bool",
          "name": "active",
          "type": "bool"
        }
      ],
      "stateMutability": "view",
      "type": "function"
    },
    {
      "inputs": [
        {
          "internalType": "address",
          "name": "_snap",
          "type": "address"
        }
      ],
      "name": "isVisible",
      "outputs": [
        {
          "internalType": "bool",
          "name": "visible",
          "type": "bool"
        }
      ],
      "stateMutability": "view",
      "type": "function"
    }
  ],
  "transactionHash": "0x443dec3d97fac71416e7a8549a060fc9f952edefab8ef750c91459d61ba2f066",
  "args": [],
  "numDeployments": 1,
  "solcInputHash": "cda4a75c91c6f2020bc1cfbf4880fb93",
  "bytecode": "0x608060405234801561001057600080fd5b50614702806100206000396000f3fe60806040523480156200001157600080fd5b5060043610620000875760003560e01c80637028d07911620000625780637028d07914620000cf57806394053ad914620000f75780639f8a13d71462000127578063b46af7c4146200013e57600080fd5b80632fd31929146200008c5780634080669214620000ae57806346fd785b14620000b8575b600080fd5b6200009662000155565b604051620000a5919062000eb4565b60405180910390f35b6200009662000390565b62000096620000c936600462000f1c565b620005c5565b620000e6620000e036600462000f1c565b620008a9565b6040519015158152602001620000a5565b6200010e6200010836600462001144565b62000938565b6040516001600160a01b039091168152602001620000a5565b620000e66200013836600462000f1c565b62000b67565b620000966200014f36600462000f1c565b62000bca565b60015460609060009067ffffffffffffffff81111562000179576200017962000f43565b604051908082528060200260200182016040528015620001a3578160200160208202803683370190505b5090506000805b600154811015620002c95760018181548110620001cb57620001cb6200125f565b6000918252602091829020015460408051635b92ac0d60e01b815290516001600160a01b0390921692635b92ac0d926004808401938290030181865afa1580156200021a573d6000803e3d6000fd5b505050506040513d601f19601f8201168201806040525081019062000240919062001275565b15620002b457600181815481106200025c576200025c6200125f565b6000918252602090912001546001600160a01b031683836200027e81620012af565b9450815181106200029357620002936200125f565b60200260200101906001600160a01b031690816001600160a01b0316815250505b80620002c081620012af565b915050620001aa565b508067ffffffffffffffff811115620002e657620002e662000f43565b60405190808252806020026020018201604052801562000310578160200160208202803683370190505b50925060005b818161ffff1610156200038a57828161ffff16815181106200033c576200033c6200125f565b6020026020010151848261ffff16815181106200035d576200035d6200125f565b6001600160a01b0390921660209283029190910190910152806200038181620012cb565b91505062000316565b50505090565b60015460609060009067ffffffffffffffff811115620003b457620003b462000f43565b604051908082528060200260200182016040528015620003de578160200160208202803683370190505b5090506000805b6001548110156200050457600181815481106200040657620004066200125f565b60009182526020918290200154604080516307da861360e11b815290516001600160a01b0390921692630fb50c26926004808401938290030181865afa15801562000455573d6000803e3d6000fd5b505050506040513d601f19601f820116820180604052508101906200047b919062001275565b15620004ef57600181815481106200049757620004976200125f565b6000918252602090912001546001600160a01b03168383620004b981620012af565b945081518110620004ce57620004ce6200125f565b60200260200101906001600160a01b031690816001600160a01b0316815250505b80620004fb81620012af565b915050620003e5565b508067ffffffffffffffff81111562000521576200052162000f43565b6040519080825280602002602001820160405280156200054b578160200160208202803683370190505b50925060005b818161ffff1610156200038a57828161ffff16815181106200057757620005776200125f565b6020026020010151848261ffff16815181106200059857620005986200125f565b6001600160a01b039092166020928302919091019091015280620005bc81620012cb565b91505062000551565b60015460609060009067ffffffffffffffff811115620005e957620005e962000f43565b60405190808252806020026020018201604052801562000613578160200160208202803683370190505b5090506000805b600154811015620007e057846001600160a01b0316600182815481106200064557620006456200125f565b6000918252602091829020015460408051638da5cb5b60e01b815290516001600160a01b0390921692638da5cb5b926004808401938290030181865afa15801562000694573d6000803e3d6000fd5b505050506040513d601f19601f82011682018060405250810190620006ba9190620012ef565b6001600160a01b031614801562000757575060018181548110620006e257620006e26200125f565b6000918252602091829020015460408051635b92ac0d60e01b815290516001600160a01b0390921692635b92ac0d926004808401938290030181865afa15801562000731573d6000803e3d6000fd5b505050506040513d601f19601f8201168201806040525081019062000757919062001275565b15620007cb57600181815481106200077357620007736200125f565b6000918252602090912001546001600160a01b031683836200079581620012af565b945081518110620007aa57620007aa6200125f565b60200260200101906001600160a01b031690816001600160a01b0316815250505b80620007d781620012af565b9150506200061a565b508067ffffffffffffffff811115620007fd57620007fd62000f43565b60405190808252806020026020018201604052801562000827578160200160208202803683370190505b50925060005b818161ffff161015620008a157828161ffff16815181106200085357620008536200125f565b6020026020010151848261ffff16815181106200087457620008746200125f565b6001600160a01b0390921660209283029190910190910152806200089881620012cb565b9150506200082d565b505050919050565b6001600160a01b03811660009081526020819052604081205460ff168015620009325750816001600160a01b0316630fb50c266040518163ffffffff1660e01b8152600401602060405180830381865afa1580156200090c573d6000803e3d6000fd5b505050506040513d601f19601f8201168201806040525081019062000932919062001275565b92915050565b600065085e0abb6000851015620009955760405162461bcd60e51b815260206004820152601c60248201527f536e6170466163746f72793a4d696e742d6665652d746f6f2d6c6f7700000000604482015260640160405180910390fd5b60008a8a8a8a8a8a8a8a8a604051620009ae9062000ea6565b620009c2999897969594939291906200135f565b604051809103906000f080158015620009df573d6000803e3d6000fd5b506001600160a01b038116600081815260208181526040808320805460ff191660019081179091558054808201825593527fb10e2d527612073b26eecdfd717e6a320cf44b4afac2b0732d9fcbe2b7fa0cf690920180546001600160a01b031916841790558151633f82e3bd60e11b8152915193945091927f4e8d3c620091d71faf6d62bffc754913e219a910010621e9c0a8bf7bd09cc8499288928592637f05c77a926004808401939192918290030181865afa15801562000aa6573d6000803e3d6000fd5b505050506040513d601f19601f8201168201806040525081019062000acc9190620014a3565b846001600160a01b03166375abedcf6040518163ffffffff1660e01b8152600401602060405180830381865afa15801562000b0b573d6000803e3d6000fd5b505050506040513d601f19601f8201168201806040525081019062000b319190620014a3565b604080516001600160a01b03909416845260208401929092529082015260600160405180910390a29a9950505050505050505050565b6001600160a01b03811660009081526020819052604081205460ff168015620009325750816001600160a01b0316635b92ac0d6040518163ffffffff1660e01b8152600401602060405180830381865afa1580156200090c573d6000803e3d6000fd5b60015460609060009067ffffffffffffffff81111562000bee5762000bee62000f43565b60405190808252806020026020018201604052801562000c18578160200160208202803683370190505b5090506000805b60015481101562000de557846001600160a01b03166001828154811062000c4a5762000c4a6200125f565b6000918252602091829020015460408051638da5cb5b60e01b815290516001600160a01b0390921692638da5cb5b926004808401938290030181865afa15801562000c99573d6000803e3d6000fd5b505050506040513d601f19601f8201168201806040525081019062000cbf9190620012ef565b6001600160a01b031614801562000d5c57506001818154811062000ce75762000ce76200125f565b60009182526020918290200154604080516307da861360e11b815290516001600160a01b0390921692630fb50c26926004808401938290030181865afa15801562000d36573d6000803e3d6000fd5b505050506040513d601f19601f8201168201806040525081019062000d5c919062001275565b1562000dd0576001818154811062000d785762000d786200125f565b6000918252602090912001546001600160a01b0316838362000d9a81620012af565b94508151811062000daf5762000daf6200125f565b60200260200101906001600160a01b031690816001600160a01b0316815250505b8062000ddc81620012af565b91505062000c1f565b508067ffffffffffffffff81111562000e025762000e0262000f43565b60405190808252806020026020018201604052801562000e2c578160200160208202803683370190505b50925060005b818161ffff161015620008a157828161ffff168151811062000e585762000e586200125f565b6020026020010151848261ffff168151811062000e795762000e796200125f565b6001600160a01b03909216602092830291909101909101528062000e9d81620012cb565b91505062000e32565b61320f80620014be83390190565b6020808252825182820181905260009190848201906040850190845b8181101562000ef75783516001600160a01b03168352928401929184019160010162000ed0565b50909695505050505050565b6001600160a01b038116811462000f1957600080fd5b50565b60006020828403121562000f2f57600080fd5b813562000f3c8162000f03565b9392505050565b634e487b7160e01b600052604160045260246000fd5b60405160c0810167ffffffffffffffff8111828210171562000f7f5762000f7f62000f43565b60405290565b600082601f83011262000f9757600080fd5b813567ffffffffffffffff8082111562000fb55762000fb562000f43565b604051601f8301601f19908116603f0116810190828211818310171562000fe05762000fe062000f43565b8160405283815286602085880101111562000ffa57600080fd5b836020870160208301376000602085830101528094505050505092915050565b600060c082840312156200102d57600080fd5b6200103762000f59565b9050813567ffffffffffffffff808211156200105257600080fd5b620010608583860162000f85565b835260208401359150808211156200107757600080fd5b620010858583860162000f85565b602084015260408401359150808211156200109f57600080fd5b620010ad8583860162000f85565b60408401526060840135915080821115620010c757600080fd5b620010d58583860162000f85565b60608401526080840135915080821115620010ef57600080fd5b620010fd8583860162000f85565b608084015260a08401359150808211156200111757600080fd5b50620011268482850162000f85565b60a08301525092915050565b80356200113f8162000f03565b919050565b60008060008060008060008060006101208a8c0312156200116457600080fd5b893567ffffffffffffffff808211156200117d57600080fd5b6200118b8d838e0162000f85565b9a5060208c0135915080821115620011a257600080fd5b620011b08d838e0162000f85565b995060408c0135915080821115620011c757600080fd5b620011d58d838e016200101a565b985060608c0135915080821115620011ec57600080fd5b620011fa8d838e0162000f85565b975060808c01359150808211156200121157600080fd5b50620012208c828d0162000f85565b95505060a08a013593506200123860c08b0162001132565b92506200124860e08b0162001132565b91506101008a013590509295985092959850929598565b634e487b7160e01b600052603260045260246000fd5b6000602082840312156200128857600080fd5b8151801515811462000f3c57600080fd5b634e487b7160e01b600052601160045260246000fd5b600060018201620012c457620012c462001299565b5060010190565b600061ffff808316818103620012e557620012e562001299565b6001019392505050565b6000602082840312156200130257600080fd5b815162000f3c8162000f03565b6000815180845260005b81811015620013375760208185018101518683018201520162001319565b818111156200134a576000602083870101525b50601f01601f19169290920160200192915050565b6000610120808352620013758184018d6200130f565b905082810360208401526200138b818c6200130f565b90508281036040840152895160c08252620013aa60c08301826200130f565b905060208b01518282036020840152620013c582826200130f565b91505060408b01518282036040840152620013e182826200130f565b91505060608b01518282036060840152620013fd82826200130f565b91505060808b015182820360808401526200141982826200130f565b91505060a08b015182820360a08401526200143582826200130f565b9250505082810360608401526200144d818a6200130f565b905082810360808401526200146381896200130f565b9150508560a08301526200148260c08301866001600160a01b03169052565b6001600160a01b039390931660e08201526101000152979650505050505050565b600060208284031215620014b657600080fd5b505191905056fe6101206040523480156200001257600080fd5b506040516200320f3803806200320f83398101604081905262000035916200050e565b88886000620000458382620006b7565b506001620000548282620006b7565b505050620000716200006b6200019960201b60201c565b6200019d565b6001600755600a620000848a82620006b7565b50600b620000938982620006b7565b5086518790600d908190620000a99082620006b7565b5060208201516001820190620000c09082620006b7565b5060408201516002820190620000d79082620006b7565b5060608201516003820190620000ee9082620006b7565b5060808201516004820190620001059082620006b7565b5060a082015160058201906200011c9082620006b7565b50600891506200012f90508782620006b7565b5060096200013e8682620006b7565b506200014e620151804262000783565b608052620001606202a3004262000783565b60a05260c08490526001600160a01b0380841660e0528216610100526200018782620001ef565b600c5550620007aa9650505050505050565b3390565b600680546001600160a01b038381166001600160a01b0319831681179093556040519116919082907f8be0079c531659141344cd1fd0a4f28419497f9722a3daafe3b4186f6b6457e090600090a35050565b620001f962000272565b6001600160a01b038116620002645760405162461bcd60e51b815260206004820152602660248201527f4f776e61626c653a206e6577206f776e657220697320746865207a65726f206160448201526564647265737360d01b60648201526084015b60405180910390fd5b6200026f816200019d565b50565b6006546001600160a01b03163314620002ce5760405162461bcd60e51b815260206004820181905260248201527f4f776e61626c653a2063616c6c6572206973206e6f7420746865206f776e657260448201526064016200025b565b565b634e487b7160e01b600052604160045260246000fd5b60405160c081016001600160401b03811182821017156200030b576200030b620002d0565b60405290565b604051601f8201601f191681016001600160401b03811182821017156200033c576200033c620002d0565b604052919050565b600082601f8301126200035657600080fd5b81516001600160401b03811115620003725762000372620002d0565b602062000388601f8301601f1916820162000311565b82815285828487010111156200039d57600080fd5b60005b83811015620003bd578581018301518282018401528201620003a0565b83811115620003cf5760008385840101525b5095945050505050565b600060c08284031215620003ec57600080fd5b620003f6620002e6565b82519091506001600160401b03808211156200041157600080fd5b6200041f8583860162000344565b835260208401519150808211156200043657600080fd5b620004448583860162000344565b602084015260408401519150808211156200045e57600080fd5b6200046c8583860162000344565b604084015260608401519150808211156200048657600080fd5b620004948583860162000344565b60608401526080840151915080821115620004ae57600080fd5b620004bc8583860162000344565b608084015260a0840151915080821115620004d657600080fd5b50620004e58482850162000344565b60a08301525092915050565b80516001600160a01b03811681146200050957600080fd5b919050565b60008060008060008060008060006101208a8c0312156200052e57600080fd5b89516001600160401b03808211156200054657600080fd5b620005548d838e0162000344565b9a5060208c01519150808211156200056b57600080fd5b620005798d838e0162000344565b995060408c01519150808211156200059057600080fd5b6200059e8d838e01620003d9565b985060608c0151915080821115620005b557600080fd5b620005c38d838e0162000344565b975060808c0151915080821115620005da57600080fd5b50620005e98c828d0162000344565b95505060a08a015193506200060160c08b01620004f1565b92506200061160e08b01620004f1565b91506101008a015190509295985092959850929598565b600181811c908216806200063d57607f821691505b6020821081036200065e57634e487b7160e01b600052602260045260246000fd5b50919050565b601f821115620006b257600081815260208120601f850160051c810160208610156200068d5750805b601f850160051c820191505b81811015620006ae5782815560010162000699565b5050505b505050565b81516001600160401b03811115620006d357620006d3620002d0565b620006eb81620006e4845462000628565b8462000664565b602080601f8311600181146200072357600084156200070a5750858301515b600019600386901b1c1916600185901b178555620006ae565b600085815260208120601f198616915b82811015620007545788860151825594840194600190910190840162000733565b5085821015620007735787850151600019600388901b60f8161c191681555b5050505050600190811b01905550565b60008219821115620007a557634e487b7160e01b600052601160045260246000fd5b500190565b60805160a05160c05160e051610100516129be62000851600039600081816108bc0152610ff40152600061181501526000818161048e01528181610b3d015261183f01526000818161029d0152818161045d0152818161063a0152818161098e01528181610c4e0152818161105101528181611116015281816111b201526111f301526000818161039b015281816104c401528181610ad6015261102b01526129be6000f3fe6080604052600436106101d85760003560e01c80636d4ce63c1161010257806395d89b4111610095578063d45bec7c11610064578063d45bec7c14610590578063e8a3d485146105a7578063e985e9c5146105bc578063f2fde38b1461060557600080fd5b806395d89b411461051b578063a22cb46514610530578063b88d4fde14610550578063c87b56dd1461057057600080fd5b80637a5caab3116100d15780637a5caab31461047f5780637f05c77a146104b25780638c4963ac146104e65780638da5cb5b146104fd57600080fd5b80636d4ce63c146103f457806370a0823114610416578063715018a61461043657806375abedcf1461044b57600080fd5b806323b872dd1161017a57806342966c681161014957806342966c681461036c5780635b92ac0d1461038c5780636352211e146103c15780636a627842146103e157600080fd5b806323b872dd146103025780632fbc0bf1146103225780633ccfd60b1461033757806342842e0e1461034c57600080fd5b8063095ea7b3116101b6578063095ea7b31461026c5780630fb50c261461028e57806318160ddd146102c35780631919fed7146102e257600080fd5b806301ffc9a7146101dd57806306fdde0314610212578063081812fc14610234575b600080fd5b3480156101e957600080fd5b506101fd6101f8366004611e71565b610625565b60405190151581526020015b60405180910390f35b34801561021e57600080fd5b50610227610636565b6040516102099190611eed565b34801561024057600080fd5b5061025461024f366004611f00565b61071e565b6040516001600160a01b039091168152602001610209565b34801561027857600080fd5b5061028c610287366004611f30565b610745565b005b34801561029a57600080fd5b507f000000000000000000000000000000000000000000000000000000000000000042106101fd565b3480156102cf57600080fd5b506013545b604051908152602001610209565b3480156102ee57600080fd5b5061028c6102fd366004611f00565b610864565b34801561030e57600080fd5b5061028c61031d366004611f5a565b610871565b34801561032e57600080fd5b50600c546102d4565b34801561034357600080fd5b5061028c6108a2565b34801561035857600080fd5b5061028c610367366004611f5a565b610971565b34801561037857600080fd5b5061028c610387366004611f00565b61098c565b34801561039857600080fd5b507f000000000000000000000000000000000000000000000000000000000000000042106101fd565b3480156103cd57600080fd5b506102546103dc366004611f00565b610a1b565b6102d46103ef366004611f96565b610a7b565b34801561040057600080fd5b50610409610bed565b6040516102099190611fb1565b34801561042257600080fd5b506102d4610431366004611f96565b611078565b34801561044257600080fd5b5061028c6110fe565b34801561045757600080fd5b506102d47f000000000000000000000000000000000000000000000000000000000000000081565b34801561048b57600080fd5b507f00000000000000000000000000000000000000000000000000000000000000006102d4565b3480156104be57600080fd5b506102d47f000000000000000000000000000000000000000000000000000000000000000081565b3480156104f257600080fd5b506102d46201518081565b34801561050957600080fd5b506006546001600160a01b0316610254565b34801561052757600080fd5b50610227611112565b34801561053c57600080fd5b5061028c61054b3660046120ae565b61116b565b34801561055c57600080fd5b5061028c61056b366004612100565b611176565b34801561057c57600080fd5b5061022761058b366004611f00565b6111ae565b34801561059c57600080fd5b506102d46202a30081565b3480156105b357600080fd5b506102276111ef565b3480156105c857600080fd5b506101fd6105d73660046121dc565b6001600160a01b03918216600090815260056020908152604080832093909416825291909152205460ff1690565b34801561061157600080fd5b5061028c610620366004611f96565b611229565b6000610630826112a2565b92915050565b60607f00000000000000000000000000000000000000000000000000000000000000004210156106f057600a805461066d9061220f565b80601f01602080910402602001604051908101604052809291908181526020018280546106999061220f565b80156106e65780601f106106bb576101008083540402835291602001916106e6565b820191906000526020600020905b8154815290600101906020018083116106c957829003601f168201915b5050505050905090565b5060408051808201909152601081526f045787069726564204e465420536e61760841b602082015290565b90565b6000610729826112f2565b506000908152600460205260409020546001600160a01b031690565b600061075082610a1b565b9050806001600160a01b0316836001600160a01b0316036107c25760405162461bcd60e51b815260206004820152602160248201527f4552433732313a20617070726f76616c20746f2063757272656e74206f776e656044820152603960f91b60648201526084015b60405180910390fd5b336001600160a01b03821614806107de57506107de81336105d7565b6108505760405162461bcd60e51b815260206004820152603e60248201527f4552433732313a20617070726f76652063616c6c6572206973206e6f7420746f60448201527f6b656e206f776e6572206e6f7220617070726f76656420666f7220616c6c000060648201526084016107b9565b61085a8383611351565b505050565b905090565b61086c6113bf565b600c55565b61087b3382611419565b6108975760405162461bcd60e51b81526004016107b990612249565b61085a838383611498565b6108aa6113bf565b60405147906000906001600160a01b037f0000000000000000000000000000000000000000000000000000000000000000169083908381818185875af1925050503d8060008114610917576040519150601f19603f3d011682016040523d82523d6000602084013e61091c565b606091505b505090508061096d5760405162461bcd60e51b815260206004820152601c60248201527f4e4654536e61703a66756e64732d72656c656173652d6661696c65640000000060448201526064016107b9565b5050565b61085a83838360405180602001604052806000815250611176565b7f00000000000000000000000000000000000000000000000000000000000000004210156109fc5760405162461bcd60e51b815260206004820152601960248201527f4e4654536e61703a756e617574686f72697a65642d6275726e0000000000000060448201526064016107b9565b610a0581611634565b601360008154610a14906122ad565b9091555050565b6000818152600260205260408120546001600160a01b0316806106305760405162461bcd60e51b8152602060048201526018602482015277115490cdcc8c4e881a5b9d985b1a59081d1bdad95b88125160421b60448201526064016107b9565b6000600260075403610acf5760405162461bcd60e51b815260206004820152601f60248201527f5265656e7472616e637947756172643a207265656e7472616e742063616c6c0060448201526064016107b9565b60026007557f00000000000000000000000000000000000000000000000000000000000000004210610b3b5760405162461bcd60e51b815260206004820152601560248201527413919514db985c0e9b5a5b9d1a5b99cb595b991959605a1b60448201526064016107b9565b7f0000000000000000000000000000000000000000000000000000000000000000600c54610b6991906122c4565b341015610bb85760405162461bcd60e51b815260206004820152601b60248201527f4e4654536e61703a696e73756666696369656e742d616d6f756e74000000000060448201526064016107b9565b6000601360008154610bc9906122dc565b91829055509050610bda83826116cf565b610be2611811565b600160075592915050565b610c4c60405180610140016040528060608152602001606081526020016060815260200160608152602001606081526020016060815260200160006001600160a01b031681526020016000815260200160008152602001600081525090565b7f000000000000000000000000000000000000000000000000000000000000000042101561071b57604051806101400160405280600d6000018054610c909061220f565b80601f0160208091040260200160405190810160405280929190818152602001828054610cbc9061220f565b8015610d095780601f10610cde57610100808354040283529160200191610d09565b820191906000526020600020905b815481529060010190602001808311610cec57829003601f168201915b50505050508152602001600d6001018054610d239061220f565b80601f0160208091040260200160405190810160405280929190818152602001828054610d4f9061220f565b8015610d9c5780601f10610d7157610100808354040283529160200191610d9c565b820191906000526020600020905b815481529060010190602001808311610d7f57829003601f168201915b50505050508152602001600d6002018054610db69061220f565b80601f0160208091040260200160405190810160405280929190818152602001828054610de29061220f565b8015610e2f5780601f10610e0457610100808354040283529160200191610e2f565b820191906000526020600020905b815481529060010190602001808311610e1257829003601f168201915b50505050508152602001600d6003018054610e499061220f565b80601f0160208091040260200160405190810160405280929190818152602001828054610e759061220f565b8015610ec25780601f10610e9757610100808354040283529160200191610ec2565b820191906000526020600020905b815481529060010190602001808311610ea557829003601f168201915b50505050508152602001600d6004018054610edc9061220f565b80601f0160208091040260200160405190810160405280929190818152602001828054610f089061220f565b8015610f555780601f10610f2a57610100808354040283529160200191610f55565b820191906000526020600020905b815481529060010190602001808311610f3857829003601f168201915b50505050508152602001600d6005018054610f6f9061220f565b80601f0160208091040260200160405190810160405280929190818152602001828054610f9b9061220f565b8015610fe85780601f10610fbd57610100808354040283529160200191610fe8565b820191906000526020600020905b815481529060010190602001808311610fcb57829003601f168201915b505050505081526020017f00000000000000000000000000000000000000000000000000000000000000006001600160a01b03168152602001600c5481526020017f000000000000000000000000000000000000000000000000000000000000000081526020017f0000000000000000000000000000000000000000000000000000000000000000815250905090565b60006001600160a01b0382166110e25760405162461bcd60e51b815260206004820152602960248201527f4552433732313a2061646472657373207a65726f206973206e6f7420612076616044820152683634b21037bbb732b960b91b60648201526084016107b9565b506001600160a01b031660009081526003602052604090205490565b6111066113bf565b61111060006118f4565b565b60607f000000000000000000000000000000000000000000000000000000000000000042101561114957600b805461066d9061220f565b5060408051808201909152600781526604e4654534e41560cc1b602082015290565b61096d338383611946565b6111803383611419565b61119c5760405162461bcd60e51b81526004016107b990612249565b6111a884848484611a14565b50505050565b60607f00000000000000000000000000000000000000000000000000000000000000004210156111e15761063082611a47565b61063082611ac5565b919050565b60607f00000000000000000000000000000000000000000000000000000000000000004210156112215761085f611ae6565b61085f611b32565b6112316113bf565b6001600160a01b0381166112965760405162461bcd60e51b815260206004820152602660248201527f4f776e61626c653a206e6577206f776e657220697320746865207a65726f206160448201526564647265737360d01b60648201526084016107b9565b61129f816118f4565b50565b60006001600160e01b031982166380ac58cd60e01b14806112d357506001600160e01b03198216635b5e139f60e01b145b8061063057506301ffc9a760e01b6001600160e01b0319831614610630565b6000818152600260205260409020546001600160a01b031661129f5760405162461bcd60e51b8152602060048201526018602482015277115490cdcc8c4e881a5b9d985b1a59081d1bdad95b88125160421b60448201526064016107b9565b600081815260046020526040902080546001600160a01b0319166001600160a01b038416908117909155819061138682610a1b565b6001600160a01b03167f8c5be1e5ebec7d5bd14f71427d1e84f3dd0314c0f7b2291e5b200ac8c7c3b92560405160405180910390a45050565b6006546001600160a01b031633146111105760405162461bcd60e51b815260206004820181905260248201527f4f776e61626c653a2063616c6c6572206973206e6f7420746865206f776e657260448201526064016107b9565b60008061142583610a1b565b9050806001600160a01b0316846001600160a01b0316148061146c57506001600160a01b0380821660009081526005602090815260408083209388168352929052205460ff165b806114905750836001600160a01b03166114858461071e565b6001600160a01b0316145b949350505050565b826001600160a01b03166114ab82610a1b565b6001600160a01b03161461150f5760405162461bcd60e51b815260206004820152602560248201527f4552433732313a207472616e736665722066726f6d20696e636f72726563742060448201526437bbb732b960d91b60648201526084016107b9565b6001600160a01b0382166115715760405162461bcd60e51b8152602060048201526024808201527f4552433732313a207472616e7366657220746f20746865207a65726f206164646044820152637265737360e01b60648201526084016107b9565b61157c600082611351565b6001600160a01b03831660009081526003602052604081208054600192906115a59084906122f5565b90915550506001600160a01b03821660009081526003602052604081208054600192906115d39084906122c4565b909155505060008181526002602052604080822080546001600160a01b0319166001600160a01b0386811691821790925591518493918716917fddf252ad1be2c89b69c2b068fc378daa952ba7f163c4a11628f55a4df523b3ef91a4505050565b600061163f82610a1b565b905061164c600083611351565b6001600160a01b03811660009081526003602052604081208054600192906116759084906122f5565b909155505060008281526002602052604080822080546001600160a01b0319169055518391906001600160a01b038416907fddf252ad1be2c89b69c2b068fc378daa952ba7f163c4a11628f55a4df523b3ef908390a45050565b6001600160a01b0382166117255760405162461bcd60e51b815260206004820181905260248201527f4552433732313a206d696e7420746f20746865207a65726f206164647265737360448201526064016107b9565b6000818152600260205260409020546001600160a01b03161561178a5760405162461bcd60e51b815260206004820152601c60248201527f4552433732313a20746f6b656e20616c7265616479206d696e7465640000000060448201526064016107b9565b6001600160a01b03821660009081526003602052604081208054600192906117b39084906122c4565b909155505060008181526002602052604080822080546001600160a01b0319166001600160a01b03861690811790915590518392907fddf252ad1be2c89b69c2b068fc378daa952ba7f163c4a11628f55a4df523b3ef908290a45050565b60007f00000000000000000000000000000000000000000000000000000000000000006001600160a01b03167f000000000000000000000000000000000000000000000000000000000000000060405160006040518083038185875af1925050503d806000811461189e576040519150601f19603f3d011682016040523d82523d6000602084013e6118a3565b606091505b505090508061129f5760405162461bcd60e51b815260206004820152601f60248201527f4e4654536e61703a6d696e742d6665652d72656c656173652d6661696c65640060448201526064016107b9565b600680546001600160a01b038381166001600160a01b0319831681179093556040519116919082907f8be0079c531659141344cd1fd0a4f28419497f9722a3daafe3b4186f6b6457e090600090a35050565b816001600160a01b0316836001600160a01b0316036119a75760405162461bcd60e51b815260206004820152601960248201527f4552433732313a20617070726f766520746f2063616c6c65720000000000000060448201526064016107b9565b6001600160a01b03838116600081815260056020908152604080832094871680845294825291829020805460ff191686151590811790915591519182527f17307eab39ab6107e8899845ad3d59bd9653f200f220920489ca2b5937696c31910160405180910390a3505050565b611a1f848484611498565b611a2b84848484611b51565b6111a85760405162461bcd60e51b81526004016107b99061230c565b6060611a9f600d611a5784611c52565b604051602001611a689291906123fb565b60408051601f1981840301815290829052611a8b91600e90600890602001612436565b604051602081830303815290604052611d53565b604051602001611aaf91906124e7565b6040516020818303038152906040529050919050565b6060611a9f611ad383611c52565b6009604051602001611a8b92919061252c565b604051606090611b0e90611a8b90600d90600e90600f906010906011906012906020016125ee565b604051602001611b1e91906124e7565b604051602081830303815290604052905090565b604051606090611b0e90611a8b90600990601190601290602001612761565b60006001600160a01b0384163b15611c4757604051630a85bd0160e11b81526001600160a01b0385169063150b7a0290611b959033908990889088906004016128da565b6020604051808303816000875af1925050508015611bd0575060408051601f3d908101601f19168201909252611bcd91810190612917565b60015b611c2d573d808015611bfe576040519150601f19603f3d011682016040523d82523d6000602084013e611c03565b606091505b508051600003611c255760405162461bcd60e51b81526004016107b99061230c565b805181602001fd5b6001600160e01b031916630a85bd0160e11b149050611490565b506001949350505050565b606081600003611c795750506040805180820190915260018152600360fc1b602082015290565b8160005b8115611ca35780611c8d816122dc565b9150611c9c9050600a8361294a565b9150611c7d565b60008167ffffffffffffffff811115611cbe57611cbe6120ea565b6040519080825280601f01601f191660200182016040528015611ce8576020820181803683370190505b5090505b841561149057611cfd6001836122f5565b9150611d0a600a8661295e565b611d159060306122c4565b60f81b818381518110611d2a57611d2a612972565b60200101906001600160f81b031916908160001a905350611d4c600a8661294a565b9450611cec565b606061063082600080606083518015611e53576003600282010460021b60405192507f4142434445464748494a4b4c4d4e4f505152535455565758595a616263646566601f526102308515027f6768696a6b6c6d6e6f707172737475767778797a303132333435363738392d5f03603f52602083018181015b6003880197508751603f8160121c16518353603f81600c1c16516001840153603f8160061c16516002840153603f811651600384015350600482019150808210611dcc5760038406868015611e2c57600182148215150185038752611e44565b603d821515850353603d6001831460011b8503538487525b5050601f01601f191660405250505b509392505050565b6001600160e01b03198116811461129f57600080fd5b600060208284031215611e8357600080fd5b8135611e8e81611e5b565b9392505050565b60005b83811015611eb0578181015183820152602001611e98565b838111156111a85750506000910152565b60008151808452611ed9816020860160208601611e95565b601f01601f19169290920160200192915050565b602081526000611e8e6020830184611ec1565b600060208284031215611f1257600080fd5b5035919050565b80356001600160a01b03811681146111ea57600080fd5b60008060408385031215611f4357600080fd5b611f4c83611f19565b946020939093013593505050565b600080600060608486031215611f6f57600080fd5b611f7884611f19565b9250611f8660208501611f19565b9150604084013590509250925092565b600060208284031215611fa857600080fd5b611e8e82611f19565b6020815260008251610140806020850152611fd0610160850183611ec1565b91506020850151601f1980868503016040870152611fee8483611ec1565b9350604087015191508086850301606087015261200b8483611ec1565b935060608701519150808685030160808701526120288483611ec1565b935060808701519150808685030160a08701526120458483611ec1565b935060a08701519150808685030160c0870152506120638382611ec1565b92505060c085015161208060e08601826001600160a01b03169052565b5060e08501516101008581019190915285015161012080860191909152909401519390920192909252919050565b600080604083850312156120c157600080fd5b6120ca83611f19565b9150602083013580151581146120df57600080fd5b809150509250929050565b634e487b7160e01b600052604160045260246000fd5b6000806000806080858703121561211657600080fd5b61211f85611f19565b935061212d60208601611f19565b925060408501359150606085013567ffffffffffffffff8082111561215157600080fd5b818701915087601f83011261216557600080fd5b813581811115612177576121776120ea565b604051601f8201601f19908116603f0116810190838211818310171561219f5761219f6120ea565b816040528281528a60208487010111156121b857600080fd5b82602086016020830137600060208483010152809550505050505092959194509250565b600080604083850312156121ef57600080fd5b6121f883611f19565b915061220660208401611f19565b90509250929050565b600181811c9082168061222357607f821691505b60208210810361224357634e487b7160e01b600052602260045260246000fd5b50919050565b6020808252602e908201527f4552433732313a2063616c6c6572206973206e6f7420746f6b656e206f776e6560408201526d1c881b9bdc88185c1c1c9bdd995960921b606082015260800190565b634e487b7160e01b600052601160045260246000fd5b6000816122bc576122bc612297565b506000190190565b600082198211156122d7576122d7612297565b500190565b6000600182016122ee576122ee612297565b5060010190565b60008282101561230757612307612297565b500390565b60208082526032908201527f4552433732313a207472616e7366657220746f206e6f6e20455243373231526560408201527131b2b4bb32b91034b6b83632b6b2b73a32b960711b606082015260800190565b8054600090600181811c908083168061237857607f831692505b6020808410820361239957634e487b7160e01b600052602260045260246000fd5b8180156123ad57600181146123c2576123ef565b60ff19861689528415158502890196506123ef565b60008881526020902060005b868110156123e75781548b8201529085019083016123ce565b505084890196505b50505050505092915050565b6000612407828561235e565b600160fd1b81528351612421816001840160208801611e95565b01600101949350505050565b601160f91b9052565b673d913730b6b2911d60c11b8152601160f91b60088201819052845160009190612467816009860160208a01611e95565b61088b60f21b60099185019182018190526d113232b9b1b934b83a34b7b7111d60911b600b830152601982018390526124a3601a83018861235e565b908152671134b6b0b3b2911d60c11b6002820152600a810183905290506124cd600b82018661235e565b91825250607d60f81b600182015260020195945050505050565b7f646174613a6170706c69636174696f6e2f6a736f6e3b6261736536342c00000081526000825161251f81601d850160208701611e95565b91909101601d0192915050565b673d913730b6b2911d60c11b8152601160f91b6008820181905283516000919061255d816009860160208901611e95565b61088b60f21b60099185019182018190526d113232b9b1b934b83a34b7b7111d60911b600b83015260198201839052623f3f3f60e81b601a830152601d8201526125b4601f8201671134b6b0b3b2911d60c11b9052565b6125c06027820161242d565b6125cd602882018661235e565b9150506125d98161242d565b607d60f81b6001820152600201949350505050565b673d913730b6b2911d60c11b81526126086008820161242d565b6000612617600983018961235e565b61088b60f21b8152600261263d8183016d113232b9b1b934b83a34b7b7111d60911b9052565b6126496010830161242d565b612656601183018a61235e565b61088b60f21b81529150671134b6b0b3b2911d60c11b8282015261267c600a830161242d565b612689600b83018961235e565b61088b60f21b815291506e1132bc3a32b93730b62634b735911d60891b828201526126b66011830161242d565b6126c3601283018861235e565b61088b60f21b81529150761139b2b63632b92332b2a130b9b4b9a837b4b73a39911d60491b828201526126f86019830161242d565b612705601a83018761235e565b61088b60f21b815291506e113332b2a932b1b4b834b2b73a111d60891b828201526127326011830161242d565b61273f601283018661235e565b915061274a8261242d565b607d60f81b60018301520198975050505050505050565b673d913730b6b2911d60c11b815261277b6008820161242d565b71115e1c1a5c9959081391950814db985c088b60721b60098201526d113232b9b1b934b83a34b7b7111d60911b601b8201526127b96029820161242d565b640fcfcfc88b60da1b602a820152671134b6b0b3b2911d60c11b602f8201526127e46037820161242d565b60006127f3603883018661235e565b61088b60f21b81526e1132bc3a32b93730b62634b735911d60891b600282015261281f6011820161242d565b7f68747470733a2f2f6e6674736e6170732e78797a2f222c0000000000000000006012820152761139b2b63632b92332b2a130b9b4b9a837b4b73a39911d60491b60298201526128716040820161242d565b61287e604182018661235e565b61088b60f21b815290506e113332b2a932b1b4b834b2b73a111d60891b60028201526128ac6011820161242d565b6128b9601282018561235e565b90506128c48161242d565b607d60f81b600182015260020195945050505050565b6001600160a01b038581168252841660208201526040810183905260806060820181905260009061290d90830184611ec1565b9695505050505050565b60006020828403121561292957600080fd5b8151611e8e81611e5b565b634e487b7160e01b600052601260045260246000fd5b60008261295957612959612934565b500490565b60008261296d5761296d612934565b500690565b634e487b7160e01b600052603260045260246000fdfea2646970667358221220139f969faf75eb9551d0b9d9769e19d2d4865f91f58f7042647e730d841e0cfa64736f6c634300080f0033a2646970667358221220bffbd12b086d4f88c979175eeb54b78c1dbef7795338ebb2be6a378fe262a7cc64736f6c634300080f0033",
  "devdoc": {
    "kind": "dev",
    "methods": {},
    "version": 1
  },
  "userdoc": {
    "kind": "user",
    "methods": {},
    "version": 1
  },
  "storageLayout": {
    "storage": [
      {
        "astId": 2412,
        "contract": "contracts/SnapFactory.sol:SnapFactory",
        "label": "snapsMap",
        "offset": 0,
        "slot": "0",
        "type": "t_mapping(t_address,t_bool)"
      },
      {
        "astId": 2416,
        "contract": "contracts/SnapFactory.sol:SnapFactory",
        "label": "snapsList",
        "offset": 0,
        "slot": "1",
        "type": "t_array(t_address)dyn_storage"
      }
    ],
    "types": {
      "t_address": {
        "encoding": "inplace",
        "label": "address",
        "numberOfBytes": "20"
      },
      "t_array(t_address)dyn_storage": {
        "base": "t_address",
        "encoding": "dynamic_array",
        "label": "address[]",
        "numberOfBytes": "32"
      },
      "t_bool": {
        "encoding": "inplace",
        "label": "bool",
        "numberOfBytes": "1"
      },
      "t_mapping(t_address,t_bool)": {
        "encoding": "mapping",
        "key": "t_address",
        "label": "mapping(address => bool)",
        "numberOfBytes": "32",
        "value": "t_bool"
      }
    }
  }
}